FHPO0000719202109170021335080000059ORDENDEPAGO000000020210917S                    ADH0000719                                                                                
PO00300000000127           PAGO REINTEGRO NRO.: 00300000000127                                                                      20210917009000000055658738ARS00000000   NECid: 01-02498890/00                                                                                                                                                                                                                                                                                                                                                                                              01-02498890/00           Kloster, Agus                                               01020334168736                                                                                                                                                                                                                                         00000                                   2850590940090418135201CAARS                                   BCO
PO00300000000169           PAGO REINTEGRO NRO.: 00300000000169                                                                      20210917009000000052858101ARS00000000   NECid: 02-06705114/00                                                                                                                                                                                                                                                                                                                                                                                              02-06705114/00           xxxxxxxxxx, xxxxxxxxxx                                      01000000000000                                                                                                                                                                                                                                         00000                                   0000000000000000000000CAARS                                   BCO
PO00300000000174           PAGO REINTEGRO NRO.: 00300000000174                                                                      20210917009000000222634952ARS00000000   NECid: 01-02498890/00                                                                                                                                                                                                                                                                                                                                                                                              01-02498890/00           Kloster, Agus                                               01020334168736                                                                                                                                                                                                                                         00000                                   2850590940090418135201CAARS                                   BCO
PO00300000000175           PAGO REINTEGRO NRO.: 00300000000175                                                                      20210917009000000250464321ARS00000000   NECid: 01-02498890/00                                                                                                                                                                                                                                                                                                                                                                                              01-02498890/00           Kloster, Agus                                               01020334168736                                                                                                                                                                                                                                         00000                                   2850590940090418135201CAARS                                   BCO
PO00300000000189           PAGO REINTEGRO NRO.: 00300000000189                                                                      20210917009000000000105800ARS00000000   NECid: 01-02498890/00                                                                                                                                                                                                                                                                                                                                                                                              01-02498890/00           Kloster, Agus                                               01020334168736                                                                                                                                                                                                                                         00000                                   2850590940090418135201CAARS                                   BCO
FTO0000000000000000058172191200000007
